{
    "contractName": "VorteX",
    "abi": [
        {
            "constant": true,
            "inputs": [],
            "name": "DEFAULT_TAX_PRICE",
            "outputs": [
                {
                    "name": "",
                    "type": "uint256"
                }
            ],
            "payable": false,
            "stateMutability": "view",
            "type": "function"
        },
        {
            "constant": true,
            "inputs": [],
            "name": "PLAYING_FEE",
            "outputs": [
                {
                    "name": "",
                    "type": "uint256"
                }
            ],
            "payable": false,
            "stateMutability": "view",
            "type": "function"
        },
        {
            "constant": true,
            "inputs": [],
            "name": "gameOver",
            "outputs": [
                {
                    "name": "",
                    "type": "bool"
                }
            ],
            "payable": false,
            "stateMutability": "view",
            "type": "function"
        },
        {
            "constant": true,
            "inputs": [],
            "name": "vortexLocation",
            "outputs": [
                {
                    "name": "x",
                    "type": "uint256"
                },
                {
                    "name": "y",
                    "type": "uint256"
                }
            ],
            "payable": false,
            "stateMutability": "view",
            "type": "function"
        },
        {
            "inputs": [
                {
                    "name": "_x",
                    "type": "uint256"
                },
                {
                    "name": "_y",
                    "type": "uint256"
                }
            ],
            "payable": false,
            "stateMutability": "nonpayable",
            "type": "constructor"
        },
        {
            "anonymous": false,
            "inputs": [
                {
                    "indexed": true,
                    "name": "player",
                    "type": "address"
                },
                {
                    "indexed": false,
                    "name": "x",
                    "type": "uint256"
                },
                {
                    "indexed": false,
                    "name": "y",
                    "type": "uint256"
                },
                {
                    "indexed": false,
                    "name": "taxPrice",
                    "type": "uint256"
                }
            ],
            "name": "PlayerCreated",
            "type": "event"
        },
        {
            "anonymous": false,
            "inputs": [
                {
                    "indexed": true,
                    "name": "player",
                    "type": "address"
                },
                {
                    "indexed": false,
                    "name": "taxPrice",
                    "type": "uint256"
                }
            ],
            "name": "TaxPriceSet",
            "type": "event"
        },
        {
            "anonymous": false,
            "inputs": [
                {
                    "indexed": true,
                    "name": "player",
                    "type": "address"
                },
                {
                    "indexed": false,
                    "name": "x",
                    "type": "uint256"
                },
                {
                    "indexed": false,
                    "name": "y",
                    "type": "uint256"
                }
            ],
            "name": "ShipMoved",
            "type": "event"
        },
        {
            "anonymous": false,
            "inputs": [
                {
                    "indexed": true,
                    "name": "player",
                    "type": "address"
                }
            ],
            "name": "PlayerWon",
            "type": "event"
        },
        {
            "constant": true,
            "inputs": [],
            "name": "getPlayers",
            "outputs": [
                {
                    "name": "",
                    "type": "address[]"
                }
            ],
            "payable": false,
            "stateMutability": "view",
            "type": "function"
        },
        {
            "constant": true,
            "inputs": [
                {
                    "name": "_player",
                    "type": "address"
                }
            ],
            "name": "getShip",
            "outputs": [
                {
                    "name": "",
                    "type": "uint256[5]"
                }
            ],
            "payable": false,
            "stateMutability": "view",
            "type": "function"
        },
        {
            "constant": true,
            "inputs": [
                {
                    "name": "_player",
                    "type": "address"
                }
            ],
            "name": "isPlayer",
            "outputs": [
                {
                    "name": "",
                    "type": "bool"
                }
            ],
            "payable": false,
            "stateMutability": "view",
            "type": "function"
        },
        {
            "constant": true,
            "inputs": [],
            "name": "isGameOver",
            "outputs": [
                {
                    "name": "",
                    "type": "bool"
                }
            ],
            "payable": false,
            "stateMutability": "view",
            "type": "function"
        },
        {
            "constant": false,
            "inputs": [],
            "name": "play",
            "outputs": [
                {
                    "name": "",
                    "type": "bool"
                }
            ],
            "payable": true,
            "stateMutability": "payable",
            "type": "function"
        },
        {
            "constant": false,
            "inputs": [
                {
                    "name": "_newPrice",
                    "type": "uint256"
                }
            ],
            "name": "setTaxPrice",
            "outputs": [
                {
                    "name": "",
                    "type": "bool"
                }
            ],
            "payable": false,
            "stateMutability": "nonpayable",
            "type": "function"
        },
        {
            "constant": false,
            "inputs": [
                {
                    "name": "_targetPlayer",
                    "type": "address"
                },
                {
                    "name": "_taxPrice",
                    "type": "uint256"
                },
                {
                    "name": "_targetX",
                    "type": "uint256"
                },
                {
                    "name": "_targetY",
                    "type": "uint256"
                }
            ],
            "name": "move",
            "outputs": [
                {
                    "name": "",
                    "type": "bool"
                }
            ],
            "payable": true,
            "stateMutability": "payable",
            "type": "function"
        },
        {
            "constant": false,
            "inputs": [],
            "name": "defaultMove",
            "outputs": [
                {
                    "name": "",
                    "type": "bool"
                }
            ],
            "payable": true,
            "stateMutability": "payable",
            "type": "function"
        },
        {
            "constant": false,
            "inputs": [],
            "name": "claimVictory",
            "outputs": [
                {
                    "name": "",
                    "type": "bool"
                }
            ],
            "payable": false,
            "stateMutability": "nonpayable",
            "type": "function"
        },
        {
            "constant": true,
            "inputs": [
                {
                    "name": "_seed",
                    "type": "uint256"
                }
            ],
            "name": "getLocation",
            "outputs": [
                {
                    "name": "",
                    "type": "uint256[2]"
                }
            ],
            "payable": false,
            "stateMutability": "pure",
            "type": "function"
        }
    ],
    "bytecode": "0x60806040526000600260006101000a81548160ff02191690831515021790555034801561002b57600080fd5b506040516040806119d38339810180604052810190808051906020019092919080519060200190929190505050604080519081016040528083815260200182815250600080820151816000015560208201518160010155905050505061193d806100966000396000f3006080604052600436106100d0576000357c0100000000000000000000000000000000000000000000000000000000900463ffffffff16806308f26fea146100d557806309c95e10146101005780630e04a7d81461015b5780631abddf331461018a5780631d52ceb1146101b9578063679ff70a146101db5780637f7b1393146102475780638b5b9ccc146102b05780638d0722151461031c57806393e84cd914610347578063a8b0334d14610369578063bdb337d1146103ae578063d48b912a146103dd578063e89a555f1461045c575b600080fd5b3480156100e157600080fd5b506100ea61048e565b6040518082815260200191505060405180910390f35b34801561010c57600080fd5b50610141600480360381019080803573ffffffffffffffffffffffffffffffffffffffff169060200190929190505050610499565b604051808215151515815260200191505060405180910390f35b34801561016757600080fd5b506101706104e7565b604051808215151515815260200191505060405180910390f35b34801561019657600080fd5b5061019f6104fe565b604051808215151515815260200191505060405180910390f35b6101c16107bc565b604051808215151515815260200191505060405180910390f35b61022d600480360381019080803573ffffffffffffffffffffffffffffffffffffffff169060200190929190803590602001909291908035906020019092919080359060200190929190505050610a5b565b604051808215151515815260200191505060405180910390f35b34801561025357600080fd5b5061027260048036038101908080359060200190929190505050610f67565b6040518082600260200280838360005b8381101561029d578082015181840152602081019050610282565b5050505090500191505060405180910390f35b3480156102bc57600080fd5b506102c5610fae565b6040518080602001828103825283818151815260200191508051906020019060200280838360005b838110156103085780820151818401526020810190506102ed565b505050509050019250505060405180910390f35b34801561032857600080fd5b5061033161103c565b6040518082815260200191505060405180910390f35b61034f611047565b604051808215151515815260200191505060405180910390f35b34801561037557600080fd5b50610394600480360381019080803590602001909291905050506114c8565b604051808215151515815260200191505060405180910390f35b3480156103ba57600080fd5b506103c3611700565b604051808215151515815260200191505060405180910390f35b3480156103e957600080fd5b5061041e600480360381019080803573ffffffffffffffffffffffffffffffffffffffff169060200190929190505050611713565b6040518082600560200280838360005b8381101561044957808201518184015260208101905061042e565b5050505090500191505060405180910390f35b34801561046857600080fd5b5061047161181e565b604051808381526020018281526020019250505060405180910390f35b662386f26fc1000081565b600080600360008473ffffffffffffffffffffffffffffffffffffffff1673ffffffffffffffffffffffffffffffffffffffff16815260200190815260200160002060040154119050919050565b6000600260009054906101000a900460ff16905090565b600061050861186a565b61051133610499565b1515610585576040517f08c379a00000000000000000000000000000000000000000000000000000000081526004018080602001828103825260148152602001807f596f7520617265206e6f74206120706c6179657200000000000000000000000081525060200191505060405180910390fd5b61058d6104e7565b151515610602576040517f08c379a000000000000000000000000000000000000000000000000000000000815260040180806020018281038252600c8152602001807f47616d65206973206f766572000000000000000000000000000000000000000081525060200191505060405180910390fd5b600360003373ffffffffffffffffffffffffffffffffffffffff1673ffffffffffffffffffffffffffffffffffffffff1681526020019081526020016000206002016040805190810160405290816000820154815260200160018201548152505090506000800154816000015114801561068457506000600101548160200151145b15156106f8576040517f08c379a000000000000000000000000000000000000000000000000000000000815260040180806020018281038252600a8152602001807f4e6f742077696e6e65720000000000000000000000000000000000000000000081525060200191505060405180910390fd5b3373ffffffffffffffffffffffffffffffffffffffff166108fc3073ffffffffffffffffffffffffffffffffffffffff16319081150290604051600060405180830381858888f19350505050158015610755573d6000803e3d6000fd5b506001600260006101000a81548160ff0219169083151502179055503373ffffffffffffffffffffffffffffffffffffffff167f970f935ee01502df35da11db45c29bdd97d8f41d5a0640c1dc3bd96c67f9798760405160405180910390a2600191505090565b6000806107c76104e7565b15151561083c576040517f08c379a000000000000000000000000000000000000000000000000000000000815260040180806020018281038252600c8152602001807f47616d65206973206f766572000000000000000000000000000000000000000081525060200191505060405180910390fd5b61084533610499565b15156108b9576040517f08c379a00000000000000000000000000000000000000000000000000000000081526004018080602001828103825260148152602001807f596f7520617265206e6f74206120706c6179657200000000000000000000000081525060200191505060405180910390fd5b662386f26fc10000341015151561095e576040517f08c379a00000000000000000000000000000000000000000000000000000000081526004018080602001828103825260218152602001807f44656661756c74207461782066656520686173206e6f74206265656e2070616981526020017f640000000000000000000000000000000000000000000000000000000000000081525060400191505060405180910390fd5b600360003373ffffffffffffffffffffffffffffffffffffffff1673ffffffffffffffffffffffffffffffffffffffff1681526020019081526020016000209050600281600001600001548260020160000154018115156109bb57fe5b048160020160000181905550600281600001600101548260020160010154018115156109e357fe5b0481600201600101819055503373ffffffffffffffffffffffffffffffffffffffff167f4be2230c67b6ef12da749e2464987baa1e2bb7b46cd138b650931fa9fa0dc58f82600201600001548360020160010154604051808381526020018281526020019250505060405180910390a2600191505090565b6000610a65611884565b6000610a6f6104e7565b151515610ae4576040517f08c379a000000000000000000000000000000000000000000000000000000000815260040180806020018281038252600c8152602001807f47616d65206973206f766572000000000000000000000000000000000000000081525060200191505060405180910390fd5b610aed33610499565b1515610b61576040517f08c379a00000000000000000000000000000000000000000000000000000000081526004018080602001828103825260148152602001807f596f7520617265206e6f74206120706c6179657200000000000000000000000081525060200191505060405180910390fd5b610b6a87610499565b1515610bde576040517f08c379a00000000000000000000000000000000000000000000000000000000081526004018080602001828103825260188152602001807f596f75206d75737420746172676574206120706c61796572000000000000000081525060200191505060405180910390fd5b600360008873ffffffffffffffffffffffffffffffffffffffff1673ffffffffffffffffffffffffffffffffffffffff168152602001908152602001600020606060405190810160405290816000820160408051908101604052908160008201548152602001600182015481525050815260200160028201604080519081016040529081600082015481526020016001820154815250508152602001600482015481525050915081604001518610151515610d01576040517f08c379a00000000000000000000000000000000000000000000000000000000081526004018080602001828103825260178152602001807f5461782070726963652068617320696e6372656173656400000000000000000081525060200191505060405180910390fd5b81604001513410151515610d7d576040517f08c379a000000000000000000000000000000000000000000000000000000000815260040180806020018281038252601c8152602001807f4e6f7420656e6f75676874207472616e7366657265642045746865720000000081525060200191505060405180910390fd5b81602001516000015185148015610d9b575081602001516020015184145b1515610e0f576040517f08c379a00000000000000000000000000000000000000000000000000000000081526004018080602001828103825260198152602001807f53686970206c6f636174696f6e20686173206368616e6765640000000000000081525060200191505060405180910390fd5b600360003373ffffffffffffffffffffffffffffffffffffffff1673ffffffffffffffffffffffffffffffffffffffff16815260200190815260200160002090506002826020015160000151826002016000015401811515610e6d57fe5b0481600201600001819055506002826020015160200151826002016001015401811515610e9657fe5b0481600201600101819055508673ffffffffffffffffffffffffffffffffffffffff166108fc600234811515610ec857fe5b049081150290604051600060405180830381858888f19350505050158015610ef4573d6000803e3d6000fd5b503373ffffffffffffffffffffffffffffffffffffffff167f4be2230c67b6ef12da749e2464987baa1e2bb7b46cd138b650931fa9fa0dc58f82600201600001548360020160010154604051808381526020018281526020019250505060405180910390a2600192505050949350505050565b610f6f6118b2565b6040805190810160405280610f9360ff61ff008616811515610f8d57fe5b04611830565b8152602001610fa460ff8516611830565b8152509050919050565b6060600480548060200260200160405190810160405280929190818152602001828054801561103257602002820191906000526020600020905b8160009054906101000a900473ffffffffffffffffffffffffffffffffffffffff1673ffffffffffffffffffffffffffffffffffffffff1681526020019060010190808311610fe8575b5050505050905090565b66038d7ea4c6800081565b6000806110526118b2565b61105a61186a565b6110626104e7565b1515156110d7576040517f08c379a000000000000000000000000000000000000000000000000000000000815260040180806020018281038252600c8152602001807f47616d65206973206f766572000000000000000000000000000000000000000081525060200191505060405180910390fd5b6110e033610499565b151515611155576040517f08c379a00000000000000000000000000000000000000000000000000000000081526004018080602001828103825260108152602001807f416c7265616479206120706c617965720000000000000000000000000000000081525060200191505060405180910390fd5b66038d7ea4c6800034101515156111d4576040517f08c379a000000000000000000000000000000000000000000000000000000000815260040180806020018281038252601d8152602001807f506c6179696e672066656520686173206e6f74206265656e207061696400000081525060200191505060405180910390fd5b3360014303404142604051602001808573ffffffffffffffffffffffffffffffffffffffff1673ffffffffffffffffffffffffffffffffffffffff166c0100000000000000000000000002815260140184600019166000191681526020018373ffffffffffffffffffffffffffffffffffffffff1673ffffffffffffffffffffffffffffffffffffffff166c010000000000000000000000000281526014018281526020019450505050506040516020818303038152906040526040518082805190602001908083835b6020831015156112c3578051825260208201915060208101905060208303925061129e565b6001836020036101000a038019825116818451168082178552505050505050905001915050604051809103902092506112ff8360019004610f67565b9150604080519081016040528083600060028110151561131b57fe5b6020020151815260200183600160028110151561133457fe5b6020020151815250905060043390806001815401808255809150509060018203906000526020600020016000909192909190916101000a81548173ffffffffffffffffffffffffffffffffffffffff021916908373ffffffffffffffffffffffffffffffffffffffff16021790555050606060405190810160405280828152602001828152602001662386f26fc10000815250600360003373ffffffffffffffffffffffffffffffffffffffff1673ffffffffffffffffffffffffffffffffffffffff1681526020019081526020016000206000820151816000016000820151816000015560208201518160010155505060208201518160020160008201518160000155602082015181600101555050604082015181600401559050503373ffffffffffffffffffffffffffffffffffffffff167fdbd350b0fedfda470deaaf32f91e1578f2e0a1eca99a0f2c8435b6595dcfd29482600001518360200151662386f26fc1000060405180848152602001838152602001828152602001935050505060405180910390a26001935050505090565b60006114d26104e7565b151515611547576040517f08c379a000000000000000000000000000000000000000000000000000000000815260040180806020018281038252600c8152602001807f47616d65206973206f766572000000000000000000000000000000000000000081525060200191505060405180910390fd5b61155033610499565b15156115c4576040517f08c379a00000000000000000000000000000000000000000000000000000000081526004018080602001828103825260148152602001807f596f7520617265206e6f74206120706c6179657200000000000000000000000081525060200191505060405180910390fd5b600082111515611662576040517f08c379a00000000000000000000000000000000000000000000000000000000081526004018080602001828103825260238152602001807f546178205072696365206d757374206265207374726963746c7920706f73697481526020017f697665000000000000000000000000000000000000000000000000000000000081525060400191505060405180910390fd5b81600360003373ffffffffffffffffffffffffffffffffffffffff1673ffffffffffffffffffffffffffffffffffffffff168152602001908152602001600020600401819055503373ffffffffffffffffffffffffffffffffffffffff167f9838efa056f480ba60265e269876c6f352901d2ec33a9da9476d61ed86c4fff4836040518082815260200191505060405180910390a260019050919050565b600260009054906101000a900460ff1681565b61171b6118d4565b611723611884565b600360008473ffffffffffffffffffffffffffffffffffffffff1673ffffffffffffffffffffffffffffffffffffffff168152602001908152602001600020606060405190810160405290816000820160408051908101604052908160008201548152602001600182015481525050815260200160028201604080519081016040529081600082015481526020016001820154815250508152602001600482015481525050905060a06040519081016040528082602001516000015181526020018260200151602001518152602001826000015160000151815260200182600001516020015181526020018260400151815250915050919050565b60008060000154908060010154905082565b60008060028361ffff1681151561184357fe5b0661ffff16141561185a578161ffff169050611865565b6001820161ffff1690505b919050565b604080519081016040528060008152602001600081525090565b60a0604051908101604052806118986118f7565b81526020016118a56118f7565b8152602001600081525090565b6040805190810160405280600290602082028038833980820191505090505090565b60a060405190810160405280600590602082028038833980820191505090505090565b6040805190810160405280600081526020016000815250905600a165627a7a72305820c3d47b345e4a00e1f6a4a6f24296a852349f371c51a5c928ef8eb4d677dc5e770029",
    "source": "pragma solidity ^0.4.24;\n\n/**\n * @title VorteX\n *\n * @dev VorteX contract\n * VorteX is a game in which players navigate in the the crypto space.\n * Players can move along specific directions: spaceships.\n * Players are required to pay some fee to perform action in the game.\n * The goal is to reach a beacon called the `vorteX`\n *\n * Rules:\n * 1. Playing: To start playing, a player needs to pay a certain amount of Ether to the VorteX contract\n * 2. Navigating: Because you travel faster than the speed of light, you have a select a known target (spaceship of other player or your inital location).\n *    To navigate, you need to pay a tax to the destination that is set by the player.\n *    In case of players, half of the amount paid is given to the selected player and half to the VorteX smart contract,\n *    In case you chose your initial location, the tax is sent to the smart contract. The tax of a station depends on its distance with the vorteX\n * 3. Winning: To winner is the first player to reach the vorteX which is a small area in the crypto space.\n *    The talented winner gets all ETH that have been transfered to the VorteX contract during the game\n * */\n\ncontract VorteX {\n    \n    struct Location {\n        uint x;\n        uint y;\n    }\n\n    /* Ship struct */\n    struct Ship {\n        Location initialLocation;\n        Location location;\n        uint taxPrice;\n    }\n\n    /* Fee */\n    uint constant public PLAYING_FEE = 1000000000000000;\n    uint constant public DEFAULT_TAX_PRICE = 10000000000000000;\n\n    /* VorteX location */\n    Location public vortexLocation;\n\n    /* Boolean indicating if a player won the game */\n    bool public gameOver = false;\n\n    /* Mapping containing positions of the players */\n    mapping(address => Ship) ships;\n\n    /* Array listing players */\n    address[] players;\n\n    /* Throw if the sender is not a player*/\n    modifier onlyPlayer() {\n        require(isPlayer(msg.sender), \"You are not a player\");\n        _;\n    }\n\n    /* Throw if game is over */\n    modifier gameInProgress() {\n        require(!isGameOver(), \"Game is over\");\n        _;\n    }\n\n    /* Emmited each time a player join the game */\n    event PlayerCreated(\n        address indexed player,\n        uint x,\n        uint y,\n        uint taxPrice\n    );\n\n    /* Emmited each time a player modifies its tax price */\n    event TaxPriceSet(\n        address indexed player,\n        uint taxPrice\n    );\n\n    /* Emmited each time a mouvement is made */\n    event ShipMoved(\n        address indexed player,\n        uint x,\n        uint y\n    );\n\n    /* Emmited when a player has won */\n    event PlayerWon(\n        address indexed player\n    );\n\n    /**\n     * @dev Start a new vorteX Game\n     * @param _x Target X location or the vorteX\n     * @param _y Target Y location of the vorteX\n     */\n    constructor(\n        uint _x,\n        uint _y\n    )\n        public\n    {\n        vortexLocation = Location(_x, _y);\n    }\n\n    /**\n     * @dev Get players\n     */\n    function getPlayers() \n        public\n        view\n        returns (address[])\n    {\n        return players;\n    }\n\n    /**\n     * @dev Get player information\n     * @param _player Player address\n     */\n    function getShip(\n        address _player\n    )\n        public\n        view\n        returns (uint[5])\n    {\n        Ship memory ship = ships[_player];\n        return [\n            ship.location.x,\n            ship.location.y,\n            ship.initialLocation.x,\n            ship.initialLocation.y,\n            ship.taxPrice\n        ];\n    }\n\n     /**\n     * @dev Check if a player exists\n     * @param _player Player address\n     */\n    function isPlayer(\n        address _player\n    )\n        public\n        view\n        returns (bool)\n    {\n        // tax price can not be set to 0\n        return ships[_player].taxPrice > 0;\n    }\n\n     /**\n     * @dev Check if the game is over\n     */\n    function isGameOver()\n        public\n        view\n        returns (bool)\n    {\n        return gameOver;\n    }\n\n     /**\n     * @dev Register transaction sender has a new player\n     */\n    function play()\n        public\n        payable\n        gameInProgress\n        returns (bool)\n    {\n        // The sender must not be already a player\n        require(!isPlayer(msg.sender), \"Already a player\");\n\n        // Sender must have paid gaming to start playing\n        require(msg.value >= PLAYING_FEE, \"Playing fee has not been paid\");\n\n        // Compute player default location (try to make it tough for a player to anticipate default location)\n        bytes32 defaultLocationSeed = keccak256(\n            abi.encodePacked(\n                msg.sender,\n                blockhash(block.number - 1),\n                block.coinbase,\n                block.timestamp\n            )\n        );\n        uint[2] memory defaultXY = getLocation(uint(defaultLocationSeed));\n        Location memory defaultLocation = Location(defaultXY[0], defaultXY[1]);\n\n        // Register player\n        players.push(msg.sender);\n        ships[msg.sender] = Ship(defaultLocation, defaultLocation, DEFAULT_TAX_PRICE);\n\n        // Emit event\n        emit PlayerCreated(\n            msg.sender,\n            defaultLocation.x,\n            defaultLocation.y,\n            DEFAULT_TAX_PRICE\n        );\n\n        return true;\n    }\n\n     /**\n     * @dev set the tax price, has to be > 0\n     */\n    function setTaxPrice(\n        uint _newPrice\n    )\n        public\n        gameInProgress\n        onlyPlayer\n        returns (bool)\n    {\n        require(_newPrice > 0, \"Tax Price must be strictly positive\");\n        ships[msg.sender].taxPrice = _newPrice;\n\n        emit TaxPriceSet(\n            msg.sender,\n            _newPrice\n        );\n        return true;\n    }\n\n     /**\n     * @dev Move player location to another player according to a distance\n     * @param _targetPlayer Player to target\n     * @param _taxPrice Tax price fixed by the target\n     * @param _targetX X position of the target\n     * @param _targetY Y position of the target\n     */\n    function move(\n        address _targetPlayer,\n        uint _taxPrice,\n        uint _targetX,\n        uint _targetY\n    )\n        public\n        payable\n        gameInProgress\n        onlyPlayer\n        returns (bool)\n    {\n        // Must target a player\n        require(isPlayer(_targetPlayer), \"You must target a player\");\n\n        // Get ship of the target player\n        Ship memory targetShip = ships[_targetPlayer];\n\n        // Ensure tax price of the target has not increased while transaction was pending\n        require(_taxPrice >= targetShip.taxPrice, \"Tax price has increased\");\n\n        // The sender must have transfer enough value to move\n        require(msg.value >= targetShip.taxPrice, \"Not enought transfered Ether\");\n\n        // Ensure ship location has not been modified while transaction was pending\n        require(\n            _targetX == targetShip.location.x && _targetY == targetShip.location.y,\n            \"Ship location has changed\"\n        );\n\n        // Move current player to half the distance between the target\n        Ship storage ship = ships[msg.sender];\n        ship.location.x = (ship.location.x + targetShip.location.x) / 2;\n        ship.location.y = (ship.location.y + targetShip.location.y) / 2;\n\n        // Pay tax price to the target player\n        _targetPlayer.transfer(msg.value / 2);\n\n        // Emit event\n        emit ShipMoved(\n            msg.sender,\n            ship.location.x,\n            ship.location.y\n        );\n\n        return true;\n    }\n\n    /**\n    * @dev Move with initial ship location\n    */\n    function defaultMove()\n        public\n        payable\n        gameInProgress\n        onlyPlayer\n        returns (bool)\n    {\n        // Player needs to transfer minimum tax price\n        require(msg.value >= DEFAULT_TAX_PRICE, \"Default tax fee has not been paid\");\n\n        // Move current player to half the distance between the target\n        Ship storage ship = ships[msg.sender];\n        ship.location.x = (ship.location.x + ship.initialLocation.x) / 2;\n        ship.location.y = (ship.location.y + ship.initialLocation.y) / 2;\n\n        // Emit event\n        emit ShipMoved(\n            msg.sender,\n            ship.location.x,\n            ship.location.y\n        );\n\n        return true;\n    }\n\n     /**\n     * @dev Current player claim victory\n     */\n    function claimVictory()\n        public\n        onlyPlayer\n        gameInProgress\n        returns (bool)\n    {\n        // Test player token has a winning color\n        Location memory location = ships[msg.sender].location;\n        require(location.x == vortexLocation.x && location.y == vortexLocation.y, \"Not winner\");\n\n        // Transfer winning prize\n        msg.sender.transfer(address(this).balance);\n\n        // End game\n        gameOver = true;\n\n        // Emit event\n        emit PlayerWon(\n            msg.sender\n        );\n\n        return true;\n    }\n\n     /**\n     * @dev Compute location values based on a seed\n     * @param _seed Simulated random number\n     */\n    function getLocation(\n        uint _seed\n    )\n        public\n        pure\n        returns (uint[2])\n    {\n        return [\n            toEven(uint16((_seed & 0xff00) / 0xff)),\n            toEven(uint16(_seed & 0xff))\n        ];\n    }\n\n     /**\n     * @dev Pushes a component of a location to its closest even number\n     * @param _component The component of the location\n     */\n    function toEven(\n        uint16 _component\n    )\n        internal\n        pure\n        returns (uint)\n    {\n        if (_component % 2 == 0) {\n            return _component;\n        } else {\n            return _component + 1;\n        }\n    }\n\n}",
    "sourcePath": "/Users/klow/Programming/Appli/vorteX/contracts/VorteX.sol",
    "compiler": {
        "name": "solc",
        "version": "0.4.24+commit.e67f0147.Emscripten.clang"
    },
    "schemaVersion": "2.0.1",
    "updatedAt": "2018-11-10T18:26:18.330Z"
}