{
  "contractName": "VorteXMock",
  "abi": [
    {
      "constant": true,
      "inputs": [],
      "name": "DEFAULT_TAX_PRICE",
      "outputs": [
        {
          "name": "",
          "type": "uint256"
        }
      ],
      "payable": false,
      "stateMutability": "view",
      "type": "function"
    },
    {
      "constant": true,
      "inputs": [
        {
          "name": "_player",
          "type": "address"
        }
      ],
      "name": "isPlayer",
      "outputs": [
        {
          "name": "",
          "type": "bool"
        }
      ],
      "payable": false,
      "stateMutability": "view",
      "type": "function"
    },
    {
      "constant": true,
      "inputs": [],
      "name": "isGameOver",
      "outputs": [
        {
          "name": "",
          "type": "bool"
        }
      ],
      "payable": false,
      "stateMutability": "view",
      "type": "function"
    },
    {
      "constant": false,
      "inputs": [],
      "name": "claimVictory",
      "outputs": [
        {
          "name": "",
          "type": "bool"
        }
      ],
      "payable": false,
      "stateMutability": "nonpayable",
      "type": "function"
    },
    {
      "constant": false,
      "inputs": [],
      "name": "defaultMove",
      "outputs": [
        {
          "name": "",
          "type": "bool"
        }
      ],
      "payable": true,
      "stateMutability": "payable",
      "type": "function"
    },
    {
      "constant": false,
      "inputs": [
        {
          "name": "_targetPlayer",
          "type": "address"
        },
        {
          "name": "_taxPrice",
          "type": "uint256"
        },
        {
          "name": "_targetX",
          "type": "uint256"
        },
        {
          "name": "_targetY",
          "type": "uint256"
        }
      ],
      "name": "move",
      "outputs": [
        {
          "name": "",
          "type": "bool"
        }
      ],
      "payable": true,
      "stateMutability": "payable",
      "type": "function"
    },
    {
      "constant": true,
      "inputs": [
        {
          "name": "_seed",
          "type": "uint256"
        }
      ],
      "name": "getLocation",
      "outputs": [
        {
          "name": "",
          "type": "uint256[2]"
        }
      ],
      "payable": false,
      "stateMutability": "pure",
      "type": "function"
    },
    {
      "constant": true,
      "inputs": [],
      "name": "getPlayers",
      "outputs": [
        {
          "name": "",
          "type": "address[]"
        }
      ],
      "payable": false,
      "stateMutability": "view",
      "type": "function"
    },
    {
      "constant": true,
      "inputs": [],
      "name": "PLAYING_FEE",
      "outputs": [
        {
          "name": "",
          "type": "uint256"
        }
      ],
      "payable": false,
      "stateMutability": "view",
      "type": "function"
    },
    {
      "constant": false,
      "inputs": [],
      "name": "play",
      "outputs": [
        {
          "name": "",
          "type": "bool"
        }
      ],
      "payable": true,
      "stateMutability": "payable",
      "type": "function"
    },
    {
      "constant": false,
      "inputs": [
        {
          "name": "_newPrice",
          "type": "uint256"
        }
      ],
      "name": "setTaxPrice",
      "outputs": [
        {
          "name": "",
          "type": "bool"
        }
      ],
      "payable": false,
      "stateMutability": "nonpayable",
      "type": "function"
    },
    {
      "constant": true,
      "inputs": [],
      "name": "gameOver",
      "outputs": [
        {
          "name": "",
          "type": "bool"
        }
      ],
      "payable": false,
      "stateMutability": "view",
      "type": "function"
    },
    {
      "constant": true,
      "inputs": [
        {
          "name": "_player",
          "type": "address"
        }
      ],
      "name": "getShip",
      "outputs": [
        {
          "name": "",
          "type": "uint256[5]"
        }
      ],
      "payable": false,
      "stateMutability": "view",
      "type": "function"
    },
    {
      "constant": true,
      "inputs": [],
      "name": "vortexLocation",
      "outputs": [
        {
          "name": "x",
          "type": "uint256"
        },
        {
          "name": "y",
          "type": "uint256"
        }
      ],
      "payable": false,
      "stateMutability": "view",
      "type": "function"
    },
    {
      "inputs": [
        {
          "name": "_x",
          "type": "uint256"
        },
        {
          "name": "_y",
          "type": "uint256"
        }
      ],
      "payable": true,
      "stateMutability": "payable",
      "type": "constructor"
    },
    {
      "anonymous": false,
      "inputs": [
        {
          "indexed": true,
          "name": "player",
          "type": "address"
        },
        {
          "indexed": false,
          "name": "x",
          "type": "uint256"
        },
        {
          "indexed": false,
          "name": "y",
          "type": "uint256"
        },
        {
          "indexed": false,
          "name": "taxPrice",
          "type": "uint256"
        }
      ],
      "name": "PlayerCreated",
      "type": "event"
    },
    {
      "anonymous": false,
      "inputs": [
        {
          "indexed": true,
          "name": "player",
          "type": "address"
        },
        {
          "indexed": false,
          "name": "taxPrice",
          "type": "uint256"
        }
      ],
      "name": "TaxPriceSet",
      "type": "event"
    },
    {
      "anonymous": false,
      "inputs": [
        {
          "indexed": true,
          "name": "player",
          "type": "address"
        },
        {
          "indexed": false,
          "name": "x",
          "type": "uint256"
        },
        {
          "indexed": false,
          "name": "y",
          "type": "uint256"
        }
      ],
      "name": "ShipMoved",
      "type": "event"
    },
    {
      "anonymous": false,
      "inputs": [
        {
          "indexed": true,
          "name": "player",
          "type": "address"
        }
      ],
      "name": "PlayerWon",
      "type": "event"
    }
  ],
  "bytecode": "0x60806040526000600260006101000a81548160ff021916908315150217905550604051604080611b1d83398101806040528101908080519060200190929190805190602001909291905050508181604080519081016040528083815260200182815250600080820151816000015560208201518160010155905050505060043390806001815401808255809150509060018203906000526020600020016000909192909190916101000a81548173ffffffffffffffffffffffffffffffffffffffff021916908373ffffffffffffffffffffffffffffffffffffffff1602179055505060606040519081016040528060006040805190810160405290816000820154815260200160018201548152505081526020016000604080519081016040529081600082015481526020016001820154815250508152602001662386f26fc10000815250600360003373ffffffffffffffffffffffffffffffffffffffff1673ffffffffffffffffffffffffffffffffffffffff168152602001908152602001600020600082015181600001600082015181600001556020820151816001015550506020820151816002016000820151816000015560208201518160010155505060408201518160040155905050505061193d806101e06000396000f3006080604052600436106100d0576000357c0100000000000000000000000000000000000000000000000000000000900463ffffffff16806308f26fea146100d557806309c95e10146101005780630e04a7d81461015b5780631abddf331461018a5780631d52ceb1146101b9578063679ff70a146101db5780637f7b1393146102475780638b5b9ccc146102b05780638d0722151461031c57806393e84cd914610347578063a8b0334d14610369578063bdb337d1146103ae578063d48b912a146103dd578063e89a555f1461045c575b600080fd5b3480156100e157600080fd5b506100ea61048e565b6040518082815260200191505060405180910390f35b34801561010c57600080fd5b50610141600480360381019080803573ffffffffffffffffffffffffffffffffffffffff169060200190929190505050610499565b604051808215151515815260200191505060405180910390f35b34801561016757600080fd5b506101706104e7565b604051808215151515815260200191505060405180910390f35b34801561019657600080fd5b5061019f6104fe565b604051808215151515815260200191505060405180910390f35b6101c16107bc565b604051808215151515815260200191505060405180910390f35b61022d600480360381019080803573ffffffffffffffffffffffffffffffffffffffff169060200190929190803590602001909291908035906020019092919080359060200190929190505050610a5b565b604051808215151515815260200191505060405180910390f35b34801561025357600080fd5b5061027260048036038101908080359060200190929190505050610f67565b6040518082600260200280838360005b8381101561029d578082015181840152602081019050610282565b5050505090500191505060405180910390f35b3480156102bc57600080fd5b506102c5610fae565b6040518080602001828103825283818151815260200191508051906020019060200280838360005b838110156103085780820151818401526020810190506102ed565b505050509050019250505060405180910390f35b34801561032857600080fd5b5061033161103c565b6040518082815260200191505060405180910390f35b61034f611047565b604051808215151515815260200191505060405180910390f35b34801561037557600080fd5b50610394600480360381019080803590602001909291905050506114c8565b604051808215151515815260200191505060405180910390f35b3480156103ba57600080fd5b506103c3611700565b604051808215151515815260200191505060405180910390f35b3480156103e957600080fd5b5061041e600480360381019080803573ffffffffffffffffffffffffffffffffffffffff169060200190929190505050611713565b6040518082600560200280838360005b8381101561044957808201518184015260208101905061042e565b5050505090500191505060405180910390f35b34801561046857600080fd5b5061047161181e565b604051808381526020018281526020019250505060405180910390f35b662386f26fc1000081565b600080600360008473ffffffffffffffffffffffffffffffffffffffff1673ffffffffffffffffffffffffffffffffffffffff16815260200190815260200160002060040154119050919050565b6000600260009054906101000a900460ff16905090565b600061050861186a565b61051133610499565b1515610585576040517f08c379a00000000000000000000000000000000000000000000000000000000081526004018080602001828103825260148152602001807f596f7520617265206e6f74206120706c6179657200000000000000000000000081525060200191505060405180910390fd5b61058d6104e7565b151515610602576040517f08c379a000000000000000000000000000000000000000000000000000000000815260040180806020018281038252600c8152602001807f47616d65206973206f766572000000000000000000000000000000000000000081525060200191505060405180910390fd5b600360003373ffffffffffffffffffffffffffffffffffffffff1673ffffffffffffffffffffffffffffffffffffffff1681526020019081526020016000206002016040805190810160405290816000820154815260200160018201548152505090506000800154816000015114801561068457506000600101548160200151145b15156106f8576040517f08c379a000000000000000000000000000000000000000000000000000000000815260040180806020018281038252600a8152602001807f4e6f742077696e6e65720000000000000000000000000000000000000000000081525060200191505060405180910390fd5b3373ffffffffffffffffffffffffffffffffffffffff166108fc3073ffffffffffffffffffffffffffffffffffffffff16319081150290604051600060405180830381858888f19350505050158015610755573d6000803e3d6000fd5b506001600260006101000a81548160ff0219169083151502179055503373ffffffffffffffffffffffffffffffffffffffff167f970f935ee01502df35da11db45c29bdd97d8f41d5a0640c1dc3bd96c67f9798760405160405180910390a2600191505090565b6000806107c76104e7565b15151561083c576040517f08c379a000000000000000000000000000000000000000000000000000000000815260040180806020018281038252600c8152602001807f47616d65206973206f766572000000000000000000000000000000000000000081525060200191505060405180910390fd5b61084533610499565b15156108b9576040517f08c379a00000000000000000000000000000000000000000000000000000000081526004018080602001828103825260148152602001807f596f7520617265206e6f74206120706c6179657200000000000000000000000081525060200191505060405180910390fd5b662386f26fc10000341015151561095e576040517f08c379a00000000000000000000000000000000000000000000000000000000081526004018080602001828103825260218152602001807f44656661756c74207461782066656520686173206e6f74206265656e2070616981526020017f640000000000000000000000000000000000000000000000000000000000000081525060400191505060405180910390fd5b600360003373ffffffffffffffffffffffffffffffffffffffff1673ffffffffffffffffffffffffffffffffffffffff1681526020019081526020016000209050600281600001600001548260020160000154018115156109bb57fe5b048160020160000181905550600281600001600101548260020160010154018115156109e357fe5b0481600201600101819055503373ffffffffffffffffffffffffffffffffffffffff167f4be2230c67b6ef12da749e2464987baa1e2bb7b46cd138b650931fa9fa0dc58f82600201600001548360020160010154604051808381526020018281526020019250505060405180910390a2600191505090565b6000610a65611884565b6000610a6f6104e7565b151515610ae4576040517f08c379a000000000000000000000000000000000000000000000000000000000815260040180806020018281038252600c8152602001807f47616d65206973206f766572000000000000000000000000000000000000000081525060200191505060405180910390fd5b610aed33610499565b1515610b61576040517f08c379a00000000000000000000000000000000000000000000000000000000081526004018080602001828103825260148152602001807f596f7520617265206e6f74206120706c6179657200000000000000000000000081525060200191505060405180910390fd5b610b6a87610499565b1515610bde576040517f08c379a00000000000000000000000000000000000000000000000000000000081526004018080602001828103825260188152602001807f596f75206d75737420746172676574206120706c61796572000000000000000081525060200191505060405180910390fd5b600360008873ffffffffffffffffffffffffffffffffffffffff1673ffffffffffffffffffffffffffffffffffffffff168152602001908152602001600020606060405190810160405290816000820160408051908101604052908160008201548152602001600182015481525050815260200160028201604080519081016040529081600082015481526020016001820154815250508152602001600482015481525050915081604001518610151515610d01576040517f08c379a00000000000000000000000000000000000000000000000000000000081526004018080602001828103825260178152602001807f5461782070726963652068617320696e6372656173656400000000000000000081525060200191505060405180910390fd5b81604001513410151515610d7d576040517f08c379a000000000000000000000000000000000000000000000000000000000815260040180806020018281038252601c8152602001807f4e6f7420656e6f75676874207472616e7366657265642045746865720000000081525060200191505060405180910390fd5b81602001516000015185148015610d9b575081602001516020015184145b1515610e0f576040517f08c379a00000000000000000000000000000000000000000000000000000000081526004018080602001828103825260198152602001807f53686970206c6f636174696f6e20686173206368616e6765640000000000000081525060200191505060405180910390fd5b600360003373ffffffffffffffffffffffffffffffffffffffff1673ffffffffffffffffffffffffffffffffffffffff16815260200190815260200160002090506002826020015160000151826002016000015401811515610e6d57fe5b0481600201600001819055506002826020015160200151826002016001015401811515610e9657fe5b0481600201600101819055508673ffffffffffffffffffffffffffffffffffffffff166108fc600234811515610ec857fe5b049081150290604051600060405180830381858888f19350505050158015610ef4573d6000803e3d6000fd5b503373ffffffffffffffffffffffffffffffffffffffff167f4be2230c67b6ef12da749e2464987baa1e2bb7b46cd138b650931fa9fa0dc58f82600201600001548360020160010154604051808381526020018281526020019250505060405180910390a2600192505050949350505050565b610f6f6118b2565b6040805190810160405280610f9360ff61ff008616811515610f8d57fe5b04611830565b8152602001610fa460ff8516611830565b8152509050919050565b6060600480548060200260200160405190810160405280929190818152602001828054801561103257602002820191906000526020600020905b8160009054906101000a900473ffffffffffffffffffffffffffffffffffffffff1673ffffffffffffffffffffffffffffffffffffffff1681526020019060010190808311610fe8575b5050505050905090565b66038d7ea4c6800081565b6000806110526118b2565b61105a61186a565b6110626104e7565b1515156110d7576040517f08c379a000000000000000000000000000000000000000000000000000000000815260040180806020018281038252600c8152602001807f47616d65206973206f766572000000000000000000000000000000000000000081525060200191505060405180910390fd5b6110e033610499565b151515611155576040517f08c379a00000000000000000000000000000000000000000000000000000000081526004018080602001828103825260108152602001807f416c7265616479206120706c617965720000000000000000000000000000000081525060200191505060405180910390fd5b66038d7ea4c6800034101515156111d4576040517f08c379a000000000000000000000000000000000000000000000000000000000815260040180806020018281038252601d8152602001807f506c6179696e672066656520686173206e6f74206265656e207061696400000081525060200191505060405180910390fd5b3360014303404142604051602001808573ffffffffffffffffffffffffffffffffffffffff1673ffffffffffffffffffffffffffffffffffffffff166c0100000000000000000000000002815260140184600019166000191681526020018373ffffffffffffffffffffffffffffffffffffffff1673ffffffffffffffffffffffffffffffffffffffff166c010000000000000000000000000281526014018281526020019450505050506040516020818303038152906040526040518082805190602001908083835b6020831015156112c3578051825260208201915060208101905060208303925061129e565b6001836020036101000a038019825116818451168082178552505050505050905001915050604051809103902092506112ff8360019004610f67565b9150604080519081016040528083600060028110151561131b57fe5b6020020151815260200183600160028110151561133457fe5b6020020151815250905060043390806001815401808255809150509060018203906000526020600020016000909192909190916101000a81548173ffffffffffffffffffffffffffffffffffffffff021916908373ffffffffffffffffffffffffffffffffffffffff16021790555050606060405190810160405280828152602001828152602001662386f26fc10000815250600360003373ffffffffffffffffffffffffffffffffffffffff1673ffffffffffffffffffffffffffffffffffffffff1681526020019081526020016000206000820151816000016000820151816000015560208201518160010155505060208201518160020160008201518160000155602082015181600101555050604082015181600401559050503373ffffffffffffffffffffffffffffffffffffffff167fdbd350b0fedfda470deaaf32f91e1578f2e0a1eca99a0f2c8435b6595dcfd29482600001518360200151662386f26fc1000060405180848152602001838152602001828152602001935050505060405180910390a26001935050505090565b60006114d26104e7565b151515611547576040517f08c379a000000000000000000000000000000000000000000000000000000000815260040180806020018281038252600c8152602001807f47616d65206973206f766572000000000000000000000000000000000000000081525060200191505060405180910390fd5b61155033610499565b15156115c4576040517f08c379a00000000000000000000000000000000000000000000000000000000081526004018080602001828103825260148152602001807f596f7520617265206e6f74206120706c6179657200000000000000000000000081525060200191505060405180910390fd5b600082111515611662576040517f08c379a00000000000000000000000000000000000000000000000000000000081526004018080602001828103825260238152602001807f546178205072696365206d757374206265207374726963746c7920706f73697481526020017f697665000000000000000000000000000000000000000000000000000000000081525060400191505060405180910390fd5b81600360003373ffffffffffffffffffffffffffffffffffffffff1673ffffffffffffffffffffffffffffffffffffffff168152602001908152602001600020600401819055503373ffffffffffffffffffffffffffffffffffffffff167f9838efa056f480ba60265e269876c6f352901d2ec33a9da9476d61ed86c4fff4836040518082815260200191505060405180910390a260019050919050565b600260009054906101000a900460ff1681565b61171b6118d4565b611723611884565b600360008473ffffffffffffffffffffffffffffffffffffffff1673ffffffffffffffffffffffffffffffffffffffff168152602001908152602001600020606060405190810160405290816000820160408051908101604052908160008201548152602001600182015481525050815260200160028201604080519081016040529081600082015481526020016001820154815250508152602001600482015481525050905060a06040519081016040528082602001516000015181526020018260200151602001518152602001826000015160000151815260200182600001516020015181526020018260400151815250915050919050565b60008060000154908060010154905082565b60008060028361ffff1681151561184357fe5b0661ffff16141561185a578161ffff169050611865565b6001820161ffff1690505b919050565b604080519081016040528060008152602001600081525090565b60a0604051908101604052806118986118f7565b81526020016118a56118f7565b8152602001600081525090565b6040805190810160405280600290602082028038833980820191505090505090565b60a060405190810160405280600590602082028038833980820191505090505090565b6040805190810160405280600081526020016000815250905600a165627a7a72305820bb85a4339d4b7d39ea2e316dc7cc933a562d0687498eb89ee460034e05819cc80029",
  "source": "pragma solidity ^0.4.24;\n\nimport { VorteX } from \"../VorteX.sol\";\n\ncontract VorteXMock is VorteX {\n    constructor(\n        uint _x,\n        uint _y\n    )\n        public\n        payable\n        VorteX(_x, _y)\n    {\n        players.push(msg.sender);\n        ships[msg.sender] = Ship(vortexLocation, vortexLocation, DEFAULT_TAX_PRICE);\n    }\n}\n",
  "sourcePath": "/Users/klow/Programming/Appli/vorteX/contracts/mocks/VorteXMock.sol",
  "compiler": {
    "name": "solc",
    "version": "0.4.24+commit.e67f0147.Emscripten.clang"
  },
  "schemaVersion": "2.0.1",
  "updatedAt": "2018-11-02T12:33:17.550Z"
}